{
  "contractName": "AssetFactory",
  "abi": [
    {
      "inputs": [
        {
          "name": "_contractAddress",
          "type": "address"
        }
      ],
      "payable": false,
      "stateMutability": "nonpayable",
      "type": "constructor"
    },
    {
      "constant": false,
      "inputs": [
        {
          "name": "_ownerName",
          "type": "string"
        },
        {
          "name": "_owner",
          "type": "address"
        },
        {
          "name": "_assetName",
          "type": "string"
        },
        {
          "name": "_desc",
          "type": "string"
        }
      ],
      "name": "createAsset",
      "outputs": [],
      "payable": true,
      "stateMutability": "payable",
      "type": "function"
    },
    {
      "constant": false,
      "inputs": [
        {
          "name": "_owner",
          "type": "address"
        },
        {
          "name": "_newAssetOwner",
          "type": "string"
        }
      ],
      "name": "transferAsset",
      "outputs": [],
      "payable": false,
      "stateMutability": "nonpayable",
      "type": "function"
    },
    {
      "constant": true,
      "inputs": [
        {
          "name": "_owner",
          "type": "address"
        }
      ],
      "name": "getOwnerDetails",
      "outputs": [
        {
          "name": "",
          "type": "string"
        },
        {
          "name": "",
          "type": "address"
        }
      ],
      "payable": false,
      "stateMutability": "view",
      "type": "function"
    }
  ],
  "bytecode": "0x608060405234801561001057600080fd5b50604051602080610e5a8339810180604052810190808051906020019092919050505080600160006101000a81548173ffffffffffffffffffffffffffffffffffffffff021916908373ffffffffffffffffffffffffffffffffffffffff160217905550336000806101000a81548173ffffffffffffffffffffffffffffffffffffffff021916908373ffffffffffffffffffffffffffffffffffffffff16021790555050610d96806100c46000396000f300608060405260043610610057576000357c0100000000000000000000000000000000000000000000000000000000900463ffffffff168063355978081461005c57806359ab527714610164578063c3bb8121146101ed575b600080fd5b610162600480360381019080803590602001908201803590602001908080601f0160208091040260200160405190810160405280939291908181526020018383808284378201915050505050509192919290803573ffffffffffffffffffffffffffffffffffffffff169060200190929190803590602001908201803590602001908080601f0160208091040260200160405190810160405280939291908181526020018383808284378201915050505050509192919290803590602001908201803590602001908080601f01602080910402602001604051908101604052809392919081815260200183838082843782019150505050505091929192905050506102dc565b005b34801561017057600080fd5b506101eb600480360381019080803573ffffffffffffffffffffffffffffffffffffffff169060200190929190803590602001908201803590602001908080601f01602080910402602001604051908101604052809392919081815260200183838082843782019150505050505091929192905050506105b7565b005b3480156101f957600080fd5b5061022e600480360381019080803573ffffffffffffffffffffffffffffffffffffffff169060200190929190505050610721565b60405180806020018373ffffffffffffffffffffffffffffffffffffffff1673ffffffffffffffffffffffffffffffffffffffff168152602001828103825284818151815260200191508051906020019080838360005b838110156102a0578082015181840152602081019050610285565b50505050905090810190601f1680156102cd5780820380516001836020036101000a031916815260200191505b50935050505060405180910390f35b60008383836102e9610889565b808473ffffffffffffffffffffffffffffffffffffffff1673ffffffffffffffffffffffffffffffffffffffff1681526020018060200180602001838103835285818151815260200191508051906020019080838360005b8381101561035c578082015181840152602081019050610341565b50505050905090810190601f1680156103895780820380516001836020036101000a031916815260200191505b50838103825284818151815260200191508051906020019080838360005b838110156103c25780820151818401526020810190506103a7565b50505050905090810190601f1680156103ef5780820380516001836020036101000a031916815260200191505b5095505050505050604051809103906000f080158015610413573d6000803e3d6000fd5b509050600160009054906101000a900473ffffffffffffffffffffffffffffffffffffffff1673ffffffffffffffffffffffffffffffffffffffff1663bda065778686846040518463ffffffff167c010000000000000000000000000000000000000000000000000000000002815260040180806020018473ffffffffffffffffffffffffffffffffffffffff1673ffffffffffffffffffffffffffffffffffffffff1681526020018373ffffffffffffffffffffffffffffffffffffffff1673ffffffffffffffffffffffffffffffffffffffff168152602001828103825285818151815260200191508051906020019080838360005b8381101561052657808201518184015260208101905061050b565b50505050905090810190601f1680156105535780820380516001836020036101000a031916815260200191505b50945050505050602060405180830381600087803b15801561057457600080fd5b505af1158015610588573d6000803e3d6000fd5b505050506040513d602081101561059e57600080fd5b8101908080519060200190929190505050505050505050565b600160009054906101000a900473ffffffffffffffffffffffffffffffffffffffff1673ffffffffffffffffffffffffffffffffffffffff1663b9308d9e83836040518363ffffffff167c0100000000000000000000000000000000000000000000000000000000028152600401808373ffffffffffffffffffffffffffffffffffffffff1673ffffffffffffffffffffffffffffffffffffffff16815260200180602001828103825283818151815260200191508051906020019080838360005b83811015610694578082015181840152602081019050610679565b50505050905090810190601f1680156106c15780820380516001836020036101000a031916815260200191505b509350505050602060405180830381600087803b1580156106e157600080fd5b505af11580156106f5573d6000803e3d6000fd5b505050506040513d602081101561070b57600080fd5b8101908080519060200190929190505050505050565b60606000600160009054906101000a900473ffffffffffffffffffffffffffffffffffffffff1673ffffffffffffffffffffffffffffffffffffffff166332df3f02846040518263ffffffff167c0100000000000000000000000000000000000000000000000000000000028152600401808273ffffffffffffffffffffffffffffffffffffffff1673ffffffffffffffffffffffffffffffffffffffff168152602001915050600060405180830381600087803b1580156107e257600080fd5b505af11580156107f6573d6000803e3d6000fd5b505050506040513d6000823e3d601f19601f82011682018060405250604081101561082057600080fd5b81019080805164010000000081111561083857600080fd5b8281019050602081018481111561084e57600080fd5b815185600182028301116401000000008211171561086b57600080fd5b50509291906020018051906020019092919050505091509150915091565b6040516104d18061089a833901905600608060405234801561001057600080fd5b506040516104d13803806104d1833981018060405281019080805190602001909291908051820192919060200180518201929190505050826000806101000a81548173ffffffffffffffffffffffffffffffffffffffff021916908373ffffffffffffffffffffffffffffffffffffffff160217905550816001908051906020019061009d9291906100bd565b5080600290805190602001906100b49291906100bd565b50505050610162565b828054600181600116156101000203166002900490600052602060002090601f016020900481019282601f106100fe57805160ff191683800117855561012c565b8280016001018555821561012c579182015b8281111561012b578251825591602001919060010190610110565b5b509050610139919061013d565b5090565b61015f91905b8082111561015b576000816000905550600101610143565b5090565b90565b610360806101716000396000f300608060405260043610610057576000357c0100000000000000000000000000000000000000000000000000000000900463ffffffff16806355f150f11461005c5780638da5cb5b146100ec578063c9230c5d14610143575b600080fd5b34801561006857600080fd5b506100716101d3565b6040518080602001828103825283818151815260200191508051906020019080838360005b838110156100b1578082015181840152602081019050610096565b50505050905090810190601f1680156100de5780820380516001836020036101000a031916815260200191505b509250505060405180910390f35b3480156100f857600080fd5b50610101610271565b604051808273ffffffffffffffffffffffffffffffffffffffff1673ffffffffffffffffffffffffffffffffffffffff16815260200191505060405180910390f35b34801561014f57600080fd5b50610158610296565b6040518080602001828103825283818151815260200191508051906020019080838360005b8381101561019857808201518184015260208101905061017d565b50505050905090810190601f1680156101c55780820380516001836020036101000a031916815260200191505b509250505060405180910390f35b60028054600181600116156101000203166002900480601f0160208091040260200160405190810160405280929190818152602001828054600181600116156101000203166002900480156102695780601f1061023e57610100808354040283529160200191610269565b820191906000526020600020905b81548152906001019060200180831161024c57829003601f168201915b505050505081565b6000809054906101000a900473ffffffffffffffffffffffffffffffffffffffff1681565b60018054600181600116156101000203166002900480601f01602080910402602001604051908101604052809291908181526020018280546001816001161561010002031660029004801561032c5780601f106103015761010080835404028352916020019161032c565b820191906000526020600020905b81548152906001019060200180831161030f57829003601f168201915b5050505050815600a165627a7a723058205139e210d815b82b4dafc21ebcddc1ef5a5cb4aadaa8a5999dc439e6842fb8c00029a165627a7a723058203993aabf91a897eca744e0db7f8e427ede97eaeb6fa988f0ca50278a1f78f5650029",
  "source": "pragma solidity ^0.4.24;\r\n\r\nimport './NameRegistry.sol';\r\n\r\ncontract Asset {\r\n\r\n    address public owner; // the owner of teh asset\r\n    string public assetName; // type of asset\r\n    string public desc; // description\r\n\r\n    constructor (address _address, string _assetName, string _desc) public {\r\n        owner = _address;\r\n        assetName = _assetName;\r\n        desc = _desc;\r\n    }\r\n}\r\n\r\ncontract AssetFactory {\r\n\r\n    /*struct AssetList {\r\n        address contractAddress;\r\n    }*/\r\n    //mapping(address => AssetList) assetLists;\r\n\r\n    //address[] carAssets;\r\n    address owner;\r\n    NameRegistry nr; // create an object of name registry to call its function\r\n\r\n    constructor (address _contractAddress) public {\r\n        nr = NameRegistry(_contractAddress); // contract address of deployed NameRegistry\r\n        owner = msg.sender;\r\n    }\r\n\r\n    modifier onlyOwner() { // access restriction\r\n        require(msg.sender == owner, \"No authorized.\");\r\n        _;\r\n    }\r\n\r\n    function createAsset(string _ownerName, address _owner, string _assetName, string _desc) public payable { // create a child contract - *payable, if you want to sell the asset\r\n        address newAsset = new Asset(_owner, _assetName, _desc);\r\n        /*AssetList memory asl = assetLists[_owner];\r\n        asl = AssetList({\r\n            contractAddress: newAsset\r\n        });\r\n        assetLists[_owner] = asl;*/\r\n        //Assets.push(newAsset); // push new asset address to array\r\n        nr.registerName(_ownerName, _owner, newAsset); // put data to another contract\r\n    }\r\n\r\n    function transferAsset(address _owner, string _newAssetOwner) public {\r\n        nr.updateName(_owner, _newAssetOwner);\r\n    }\r\n\r\n    function getOwnerDetails(address _owner) public view returns (string, address) {\r\n        // fetch owner's address and asset's address\r\n        return nr.getContractDetails(_owner);\r\n    }\r\n\r\n    /*function getAllAssets() public view returns (address, string, string) { // check deployed child contract\r\n        //Asset myAsset = Asset(Assets[0]);\r\n        //return (myAsset.owner(), myAsset.assetName(), myAsset.desc());\r\n        return assetLists[owner].contractAddress;\r\n    }*/\r\n}\r\n",
  "sourcePath": "C:\\Users\\user\\Documents\\Projects\\ether-demoapp\\contracts\\ContractFarctory.sol",
  "compiler": {
    "name": "solc",
    "version": "0.4.24+commit.e67f0147.Emscripten.clang"
  },
  "schemaVersion": "2.0.1",
  "updatedAt": "2018-12-07T07:20:52.742Z"
}